S010000052656164204144432E73726563B0
S11300000C945E000C9486000C9486000C9486007C
S11300100C9486000C9486000C9486000C94860044
S11300200C9486000C9486000C9486000C94860034
S11300300C9486000C9486000C9424010C94860085
S11300400C9486000C9486000C9405050C942C05E5
S11300500C9486000C9486000C9486000C94860004
S11300600C9486000C948600414453313131352080
S11300706E6F7420776F726B696E670A0041445328
S11300803131313520776F726B696E670A004144F4
S113009053313131352052656164696E67204144C2
S11300A043206578616D706C6520636F64650A0038
S11300B04801C6036105D2064F01680511241FBE1D
S11300C0CFEFD8E0DEBFCDBF11E0A0E0B1E0EEEFAE
S11300D0FAE102C005900D92A631B107D9F721E0EB
S11300E0A6E1B1E001C01D92A835B207E1F710E026
S11300F0CCE5D0E004C02197FE010E943409C83544
S1130100D107C9F70E9479060C94720D0C94000073
S1130110EF92FF920F931F93FC01768365835087C0
S113012047833287218714870387F686E5861F91E4
S11301300F91FF90EF900895EF92FF920F931F930A
S11301400197A1F46F3F7F4F89F40F2EF6E4EF2E51
S1130150F12CF02D07E410E02EE630E045E450E009
S113016064E470E086E191E00E9488001F910F91A1
S1130170FF90EF900895FC01848181111FC0F894D1
S113018081E08823D1F081E08483A581B6818C91BC
S113019082608C93A781B0858C9182608C93A185B9
S11301A0B2858C9182608C93A585B6851C92A385BB
S11301B0B48587EC8C9380E0E4CF78940895FC01B7
S11301C08FB7F89491E0992331F040815181628195
S11301D0738190E0F8CF8FBFCB01BA0108950E94DC
S11301E0DF0028EE33E040E050E00E941209CA012B
S11301F0B90108958F929F92AF92BF92CF92DF92EE
S1130200EF92FF92CF93DF93EC014A015B010E94CE
S1130210EF006B017C01CE010E94EF00DC01CB01F9
S11302208C199D09AE09BF0988159905AA05BB0556
S113023090F3DF91CF91FF90EF90DF90CF90BF903C
S1130240AF909F908F9008951F920F920FB60F92C8
S113025011248F939F93AF93BF93EF93FF93E6E1A2
S1130260F1E080819181A281B3818C599F4FAF4F7E
S1130270BF4F80839183A283B383FF91EF91BF919A
S1130280AF919F918F910F900FBE0F901F90189573
S11302906FEF7FEF81E090E00E949C0008956FEF84
S11302A07FEF80E090E00E949C000895CF92DF925F
S11302B0EF92FF920F931F93FC017683658350871F
S11302C047833287218714870387F686E586D08A99
S11302D0C7861F910F91FF90EF90DF90CF90089504
S11302E0CF92DF92EF92FF920F931F930197C9F47D
S11302F06F3F7F4FB1F40F2EFDEBCF2ED12CF02D9D
S11303000F2EFCEBEF2EF12CF02D0BEB10E02AEB73
S113031030E049EB50E068EB70E085E291E00E9448
S113032056011F910F91FF90EF90DF90CF900895A9
S1130330CF93DF939A01AB01FC01C581D68160E0C4
S113034074E284EF90E00E941209DA01C901409737
S1130350A109B109B695A795979587958883DF91EB
S1130360CF910895CF93DF93EC0187B18F7D87B947
S113037087B18F7E87B988B1806288B988B180617E
S113038088B986E191E00E94BB0040E85AE166E04A
S113039070E0CE010E949801ED85FE8584E480839F
S11303A0DF91CF910895DC011D96ED91FC911E978C
S11303B0108288B18F7D88B988B18F7E88B90895FD
S11303C00F931F93CF93DF93EC01ED81FE810081A6
S11303D0E985FA8510810E94D301CE010E94B20101
S11303E0ED81FE810083E985FA851083DF91CF9149
S11303F01F910F910895CF92DF92EF92FF920F9386
S11304001F93CF93DF93EC01F62EED85FE8584EAEE
S1130410808386E191E00E94EF00688379838A8378
S11304209B83ED85FE8580818823BCF086E191E085
S11304300E94EF00088119812A813B81DC01CB01F4
S1130440801B910BA20BB30B0397A105B10548F3D5
S1130450CE010E94E00110E056C0FF0C86E191E05D
S11304600E94EF00688379838A839B83EB85FC85F4
S1130470F08286E191E00E94EF00088119812A81CF
S11304803B81DC01CB01801B910BA20BB30B0397C7
S1130490A105B10528F0CE010E94E00110E033C0AF
S11304A0ED85FE858081182F187083FDDFCF84E8E9
S11304B0808386E191E00E94EF00688379838A83D8
S11304C09B83ED85FE8580818823B4F086E191E0ED
S11304D00E94EF00C880D980EA80FB80DC01CB0158
S11304E08C199D09AE09BF090397A105B10548F30D
S11304F0CE010E94E00107C0EF81F8858081887FEA
S1130500883109F411E0812FDF91CF911F910F9170
S1130510FF90EF90DF90CF9008950F931F93CF93A8
S1130520DF93EC01EB85FC856083ED85FE8584E833
S1130530808386E191E00E94EF00688379838A8357
S11305409B83ED85FE8580818823BCF086E191E064
S11305500E94EF00088119812A813B81DC01CB01D3
S1130560801B910BA20BB30B0397A105B10548F3B4
S1130570CE010E94E00180E001C081E0DF91CF91D3
S11305801F910F910895CF92DF92EF92FF920F93F4
S11305901F93CF93DF93EC01F62E4C83ED85FE85FC
S11305A084EA808386E191E00E94EF006883798386
S11305B08A839B83ED85FE8580818823BCF086E158
S11305C091E00E94EF00088119812A813B81DC01BE
S11305D0CB01801B910BA20BB30B0397A105B105B3
S11305E048F3CE010E94E00110E055C08F2D90E049
S11305F0880F991F282F2160F22E86E191E00E9436
S1130600EF00688379838A839B83F092BB0086E141
S113061091E00E94EF00088119812A813B81DC016D
S1130620CB01801B910BA20BB30B0397A105B10562
S113063028F0CE010E94E00110E02DC0ED85FE857A
S11306408081182F187083FDE0CF84E8808386E1D1
S113065091E00E94EF00688379838A839B83ED8510
S1130660FE8580818823B4F086E191E00E94EF004A
S1130670C880D980EA80FB80DC01CB018C199D09FC
S1130680AE09BF090397A105B10548F3CE010E9445
S1130690E00101C01C81812FDF91CF911F910F9147
S11306A0FF90EF90DF90CF9008950F931F93CF9317
S11306B0DF93EC018C8181508C83882329F0ED85B4
S11306C0FE8584EC808306C0811104C0ED85FE851F
S11306D084E8808386E191E00E94EF006883798357
S11306E08A839B83ED85FE8580818823BCF086E127
S11306F091E00E94EF00088119812A813B81DC018D
S1130700CB01801B910BA20BB30B0397A105B10581
S113071048F3CE010E94E00180E003C0EB85FC8534
S11307208081DF91CF911F910F9108950F931F93B3
S1130730CF93DF93EC01ED85FE8584E9808386E128
S113074091E00E94EF00688379838A839B83ED851F
S1130750FE85808184FF15C086E191E00E94EF0050
S1130760088119812A813B81DC01CB01801B910B1B
S1130770A20BB30B0397A105B10548F3CE010E9468
S1130780E001DF91CF911F910F9108956FEF7FEFFB
S113079081E090E00E9470010895CF92DF92EF9281
S11307A0FF920F931F93FC0176876587508B4787D1
S11307B0328B218B148B038BF68AE58AD08EC78A01
S11307C01F910F91FF90EF90DF90CF900895CF92FB
S11307D0DF92EF92FF920F931F930197C9F46F3F3B
S11307E07F4FB1F40F2EF6ECCF2ED12CF02D0F2E1F
S11307F0F2ECEF2EF12CF02D01EC10E020EC30E0C7
S113080044EC50E065EC70E086E391E00E94CD0397
S11308101F910F91FF90EF90DF90CF900895CF92AA
S1130820DF92EF92FF920F931F93CF93DF93FC011C
S1130830248521116AC0EC0181E08487CB01BA01CF
S11308400E94F30720E030E040E851E40E94A5084C
S11308509B01AC0160E074E284E79BE40E944B07D7
S113086020E030E040E85FE30E94D9066B017C01A0
S113087020E030E0A9010E94460788236CF420E0C0
S113088030E040E05FE3C701B6010E94D9060E9450
S1130890BD07062F172F0CC020E030E040E05FE3D7
S11308A0C701B6010E94DA060E94BD07062F172F62
S11308B061E070E080E091E00E943A0999838883C6
S11308C061E070E080E091E00E943A099F838E83AA
S11308D08FEF90E09B838A8399878887F89481E0DF
S11308E0882391F0ED85FE851083EF85F8890083D8
S11308F0ED89FE89808186608083EB89FC89808113
S11309008869808380E0ECCF7894DF91CF911F9148
S11309100F91FF90EF90DF90CF900895FC018285B6
S11309208F5F9085892393858917E9F38287A68150
S1130930B7818285A80FB11D6C930388F489E02DDB
S113094080818062808308950F931F93CF93DF93F8
S11309508C01EB016881662329F02196C8010E946D
S11309608E04F8CFDF91CF911F910F9108950F93CB
S11309701F93CF93DF93CDB7DEB7DA950FB6F89414
S1130980DEBF0FBECDBF8E010F5F1F4F80E091E031
S1130990F8019C01119221503040E1F79E01255F3E
S11309A03E4FC75FDE4F48815981C950D14060E056
S11309B071E0C8010E947E0AB801C95FDE4F8881D8
S11309C09981C750D1400E94A404D3950FB6F894DE
S11309D0DEBF0FBECDBFDF91CF911F910F91089560
S11309E00F931F93CF93DF938C01EB01FE0184914E
S11309F0882331F021966491C8010E948E04F6CFB9
S1130A00DF91CF911F910F9108951F920F920FB60E
S1130A100F9211248F939F93AF93BF93EF93FF9300
S1130A20E6E3F1E0848192818F5F89238483A0814E
S1130A30B1818481A80FB11D0788F08DE02D8081DC
S1130A408C93FF91EF91BF91AF919F918F910F90F4
S1130A500FBE0F901F9018951F920F920FB60F9212
S1130A6011242F938F939F93AF93BF93EF93FF938F
S1130A70E6E3F1E092858385981781F0838590857C
S1130A808F5F89238387A789B08D8681978123858A
S1130A90FC01E20FF11D80818C9307C0E0914901B4
S1130AA0F0914A0180818F7D8083FF91EF91BF9106
S1130AB0AF919F918F912F910F900FBE0F901F9028
S1130AC018956FEF7FEF81E090E00E94E7030895AF
S1130AD06FEF7FEF80E090E00E94E7030895FC0150
S1130AE071836083448308951F93CF93DF93EC0154
S1130AF06C81888199810E94FB01182F88819981DA
S1130B000E949603812FDF91CF911F910895FC01DC
S1130B10228133812F71F0E26F9FB0011124622B87
S1130B20732BFC01738362830895CF93DF93EC01ED
S1130B30888199810E94B201CE010E9474058823A4
S1130B4019F167E0CE010E9487058A819B81836049
S1130B5095609B838A836C81888199810E94FB01C3
S1130B6061E0888199810E948D026B8188819981DD
S1130B700E948D026A81888199810E948D028881F8
S1130B8099810E94960381E0DF91CF910895CF93DC
S1130B90DF93EC0163708A819B819F786C5F70E0C6
S1130BA0762F66277295707F682B792B70687B830C
S1130BB06A836C81888199810E94FB0161E088814C
S1130BC099810E948D026B81888199810E948D0296
S1130BD06A81888199810E948D02888199810E940D
S1130BE09603DF91CF9108950F931F93CF93DF93D3
S1130BF0EC016C81888199810E94FB0161E088810C
S1130C0099810E948D0242E06C81888199810E94C1
S1130C10C3028230C9F4888199810E945503082F48
S1130C2010E0102F0027888199810E945503082B1A
S1130C301B830A83888199810E9496038B81809506
S1130C40881F8827881F01C080E0DF91CF911F9102
S1130C500F9108950F931F93CF93DF93EC01CE016F
S1130C600E94F4058111FBCF6C81888199810E94D7
S1130C70FB0160E0888199810E948D0242E06C81D1
S1130C80888199810E94C3028230A1F4888199816C
S1130C900E945503082F10E0102F002788819981A6
S1130CA00E945503082B888199810E949603802F06
S1130CB0912F02C080E090E0DF91CF911F910F91BE
S1130CC00895CF93DF93EC010E94C705CE010E94E3
S1130CD02A06DF91CF910895019751F46F3F7F4F1A
S1130CE039F448E465E271E08FE491E00E946F0515
S1130CF0089540E855E260E070E086E391E00E94E8
S1130D000F0486E191E00E94BB006EE870E086E388
S1130D1091E00E94F0048FE491E00E9495058823FD
S1130D2039F06DE770E086E391E00E94F00407C0BB
S1130D3068E670E086E391E00E94F004FFCF6AE089
S1130D4086E391E00E948E04C0E0C430E8F46C2F86
S1130D508FE491E00E9461069F938F931F92CF933B
S1130D6086E091E09F938F9386E391E09F938F9326
S1130D700E94B704CF5F8DB79EB708960FB6F8945C
S1130D809EBF0FBE8DBFE1CF6AE086E391E00E9473
S1130D908E0448EE53E060E070E086E191E00E944A
S1130DA0FA00CDCF6FEF7FEF81E090E00E946C06F8
S1130DB008955058BB27AA270E94F1060C946B088B
S1130DC00E945D0838F00E94640820F039F49F3FC7
S1130DD019F426F40C945A080EF4E095E7FB0C94ED
S1130DE05408E92F0E947C0858F3BA176207730766
S1130DF08407950720F079F4A6F50C949E080EF468
S1130E00E0950B2EBA2FA02D0B01B90190010C0116
S1130E10CA01A0011124FF27591B99F0593F50F42E
S1130E20503E68F11A16F040A22F232F342F442786
S1130E30585FF3CF469537952795A795F04053957E
S1130E40C9F77EF41F16BA0B620B730B840BBAF04E
S1130E509150A1F0FF0FBB1F661F771F881FC2F7B9
S1130E600EC0BA0F621F731F841F48F487957795CD
S1130E706795B795F7959E3F08F0B0CF9395880F87
S1130E8008F09927EE0F9795879508950E943008EA
S1130E9008F481E008950E945F070C946B080E9497
S1130EA0640858F00E945D0840F029F45F3F29F07F
S1130EB00C94540851110C949F080C945A080E94E5
S1130EC07C0868F39923B1F3552391F3951B550BD3
S1130ED0BB27AA2762177307840738F09F5F5F4F09
S1130EE0220F331F441FAA1FA9F335D00E2E3AF048
S1130EF0E0E832D091505040E695001CCAF72BD060
S1130F00FE2F29D0660F771F881FBB1F26173707B0
S1130F104807AB07B0E809F0BB0B802DBF01FF27E2
S1130F2093585F4F3AF09E3F510578F00C94540863
S1130F300C949F085F3FE4F3983ED4F3869577952D
S1130F406795B795F7959F5FC9F7880F911D96959B
S1130F50879597F90895E1E0660F771F881FBB1FF7
S1130F60621773078407BA0720F0621B730B840BA4
S1130F70BA0BEE1F88F7E09508950E94C4076894A1
S1130F80B1110C949F0808950E94840888F09F571B
S1130F9098F0B92F9927B751B0F0E1F0660F771F99
S1130FA0881F991F1AF0BA95C9F714C0B13091F08F
S1130FB00E949E08B1E008950C949E08672F782F34
S1130FC08827B85F39F0B93FCCF386957795679554
S1130FD0B395D9F73EF490958095709561957F4FC0
S1130FE08F4F9F4F0895E89409C097FB3EF4909566
S1130FF08095709561957F4F8F4F9F4F9923A9F0EE
S1131000F92F96E9BB279395F6958795779567957C
S1131010B795F111F8CFFAF4BB0F11F460FF1BC0C0
S11310206F5F7F4F8F4F9F4F16C0882311F096E953
S113103011C0772321F09EE8872F762F05C0662301
S113104071F096E8862F70E060E02AF09A95660FBA
S1131050771F881FDAF7880F9695879597F9089573
S1131060990F0008550FAA0BE0E8FEEF16161706B5
S1131070E807F907C0F012161306E407F50798F01D
S1131080621B730B840B950B39F40A2661F0232B36
S1131090242B252B21F408950A2609F4A140A695B2
S11310A08FEF811D811D089597F99F6780E870E097
S11310B060E008959FEF80EC089500240A941616CA
S11310C0170618060906089500240A941216130632
S11310D0140605060895092E0394000C11F48823C0
S11310E052F0BB0F40F4BF2B11F460FF04C06F5FDC
S11310F07F4F8F4F9F4F089557FD9058440F551FB2
S113110059F05F3F71F04795880F97FB991F61F085
S11311109F3F79F087950895121613061406551FFC
S1131120F2CF4695F1DF08C0161617061806991F68
S1131130F1CF86957105610508940895E894BB275D
S113114066277727CB0197F908950E94B8080C9475
S11311506B080E945D0838F00E94640820F0952313
S113116011F00C9454080C945A0811240C949F0800
S11311700E947C0870F3959FC1F3950F50E0551FB2
S1131180629FF001729FBB27F00DB11D639FAA27D8
S1131190F00DB11DAA1F649F6627B00DA11D661F27
S11311A0829F2227B00DA11D621F739FB00DA11D48
S11311B0621F839FA00D611D221F749F3327A00D02
S11311C0611D231F849F600D211D822F762F6A2F9E
S11311D011249F5750409AF0F1F088234AF0EE0F03
S11311E0FF1FBB1F661F771F881F91505040A9F730
S11311F09E3F510580F00C9454080C949F085F3F67
S1131200E4F3983ED4F3869577956795B795F7956B
S1131210E7959F5FC1F7FE2B880F911D96958795E3
S113122097F90895A1E21A2EAA1BBB1BFD010DC05C
S1131230AA1FBB1FEE1FFF1FA217B307E407F50782
S113124020F0A21BB30BE40BF50B661F771F881F5E
S1131250991F1A9469F760957095809590959B01F4
S1131260AC01BD01CF010895EE0FFF1F0590F4916D
S1131270E02D09940F931F93CF93DF93869F8001F2
S1131280879F100D969F100D1124C8010E945609C6
S1131290EC01009729F0A80160E070E00E94770A51
S11312A0CE01DF91CF911F910F9108950F931F935A
S11312B0CF93DF938230910510F482E090E0E091C7
S11312C05601F091570120E030E0A0E0B0E0309703
S11312D019F1408151810281138148175907C8F0DF
S11312E08417950769F4109731F012960C931297AE
S11312F013961C9327C0009356011093570122C0E4
S11313002115310519F04217530718F49A01BD014C
S1131310EF01DF01F801DBCF21153105F9F0281BBE
S1131320390B2430310580F48A819B816115710564
S113133021F0FB019383828304C09093570180932F
S11313405601FE01329644C0FE01E20FF31F819361
S1131350919322503109398328833AC02091540152
S113136030915501232B41F4209102013091030166
S113137030935501209354012091000130910101D3
S11313802115310541F42DB73EB740910401509128
S11313900501241B350BE0915401F0915501E2172E
S11313A0F307A0F42E1B3F0B2817390778F0AC0184
S11313B04E5F5F4F2417350748F04E0F5F1F509361
S11313C05501409354018193919302C0E0E0F0E011
S11313D0CF01DF91CF911F910F910895CF93DF93A8
S11313E0009709F481C0FC01329713821282A09104
S11313F05601B0915701109781F420813181820FF9
S1131400931F20915401309155012817390751F544
S1131410F0935501E093540167C0ED0120E030E002
S1131420CE17DF0740F44A815B819E0141155105C7
S1131430F1F0EA01F5CFD383C28340815181840F57
S1131440951FC817D90759F488819981840F951F6E
S11314500296918380838A819B8193838283211561
S1131460310529F4F0935701E09356013DC0E90199
S1131470FB83EA8349915991C40FD51FEC17FD07EB
S113148061F480819181840F951F0296E90199830B
S11314908883828193819B838A83E0E0F0E01296C3
S11314A08D919C911397009719F0FD01DC01F7CF02
S11314B08D919C9111979D012E5F3F4F820F931F39
S11314C020915401309155012817390769F4309758
S11314D029F4109257011092560102C0138212820D
S11314E0B0935501A0935401DF91CF910895DC018D
S11314F001C06D9341505040E0F70895AEE0B0E074
S1131500E4E8FAE00C94490D8C01FA0186E08C833E
S11315101A83098377FF02C060E070E8CB0101976A
S11315209E838D83A901BF01CE0101960E94AA0A60
S11315304D815E8157FD0AC02F81388542175307BC
S11315400CF49A01F801E20FF31F10822E96E4E0E6
S11315500C94650DABE0B0E0E0EBFAE00C943B0DCD
S11315606C017B018A01FC0117821682838181FF51
S1131570CCC1CE0101963C01F6019381F70193FDA4
S1131580859193FF81917F01882309F4BAC1853243
S113159039F493FD859193FF81917F01853229F47C
S11315A0B60190E00E94A10CE7CF912C212C312CA4
S11315B0FFE1F315D8F08B3279F038F4803279F00A
S11315C08332A1F4232D20611DC08D3261F080335C
S11315D069F4232D216016C0832D8260382EE32DFB
S11315E0E4603E2E2AC0F32DF8601DC037FC2DC0E8
S11315F020ED280F2A3040F08E32B9F436FC81C138
S1131600232D2064322E19C036FE06C08AE0989E2F
S1131610200D1124922E11C0EAE02E9E200D1124DB
S1131620222EF32DF0623F2E08C08C3621F4832D38
S11316308068382E02C0883641F4F70193FD859105
S113164093FF81917F018111B3CF982F9F7D955492
S1131650933028F40C5F1F4F9FE399830DC08336AA
S113166031F0833771F0833509F059C021C0F80196
S1131670808189830E5F1F4F88248394912C5301AA
S113168013C02801F2E04F0E511CF801A080B18074
S113169036FE03C0692D70E002C06FEF7FEFC50115
S11316A00E94960C4C018201F32DFF773F2E16C049
S11316B0280122E0420E511CF801A080B18036FEC0
S11316C003C0692D70E002C06FEF7FEFC5010E9477
S11316D08B0C4C01F32DF0683F2E820133FC1BC0B0
S11316E0822D90E088169906B0F4B60180E290E06D
S11316F00E94A10C2A94F4CFF50137FC859137FEA2
S113170081915F01B60190E00E94A10C21102A94FE
S113171021E0821A91088114910471F7E8C084369B
S113172011F0893641F5F80137FE07C060817181F7
S1131730828193810C5F1F4F08C060817181072EE5
S1131740000C880B990B0E5F1F4FF32DFF763F2E75
S113175097FF09C090958095709561957F4F8F4F45
S11317609F4FF0683F2E2AE030E0A3010E94DD0C79
S1131770882E861845C0853731F4232D2F7EB22E4E
S11317802AE030E025C0932D997FB92E8F36C1F021
S113179018F4883579F0B5C0803719F0883721F00E
S11317A0B0C0E92FE061BE2EB4FE0DC0FB2DF46085
S11317B0BF2E09C034FE0AC0292F2660B22E06C0EF
S11317C028E030E005C020E130E002C020E132E052
S11317D0F801B7FE07C060817181828193810C5F3B
S11317E01F4F06C06081718180E090E00E5F1F4F43
S11317F0A3010E94DD0C882E8618FB2DFF773F2E57
S113180036FE0DC0232D2E7FA22E891458F434FEEB
S11318100BC032FC09C0832D8E7EA82E05C0B82CC7
S1131820A32C03C0B82C01C0B92CA4FE0FC0FE0128
S1131830E80DF11D8081803321F49A2D997EA92E23
S113184009C0A2FE06C0B394B39404C08A2D86785E
S113185009F0B394A3FC11C0A0FE06C0B21488F42E
S1131860280C922C9B180EC0B21460F4B60180E2CE
S113187090E00E94A10CB394F7CFB21418F42B1883
S113188002C0982C212CA4FE10C0B60180E390E085
S11318900E94A10CA2FE17C0A1FC03C088E790E03F
S11318A002C088E590E0B6010CC08A2D867859F014
S11318B0A1FE02C08BE201C080E2A7FC8DE2B6016A
S11318C090E00E94A10C891438F4B60180E390E002
S11318D00E94A10C9A94F7CF8A94F301E80DF11DAC
S11318E08081B60190E00E94A10C8110F5CF2220E6
S11318F009F442CEB60180E290E00E94A10C2A9441
S1131900F6CFF6018681978102C08FEF9FEF2B9669
S1131910E2E10C94570DFC010590615070400110F8
S1131920D8F7809590958E0F9F1F0895FC01615004
S1131930704001900110D8F7809590958E0F9F1FED
S113194008950F931F93CF93DF93FB01238121FD10
S113195003C08FEF9FEF2CC022FF16C04681578132
S1131960248135814217530744F4A081B1819D013C
S11319702F5F3F4F318320838C93268137812F5FE4
S11319803F4F3783268314C08B01EC01FB01008495
S1131990F185E02D0995892BE1F6D80116968D91F4
S11319A09C911797019617969C938E931697CE0148
S11319B0DF91CF911F910F910895FA01AA27283042
S11319C051F1203181F1E8946F936E7F6E5F7F4F08
S11319D08F4F9F4FAF4FB1E03ED0B4E03CD0670F84
S11319E0781F891F9A1FA11D680F791F8A1F911DD7
S11319F0A11D6A0F711D811D911DA11D20D009F427
S1131A0068943F912AE0269F11243019305D319368
S1131A10DEF6CF010895462F4770405D4193B3E051
S1131A200FD0C9F7F6CF462F4F70405D4A3318F0F8
S1131A30495D31FD4052419302D0A9F7EACFB4E0A9
S1131A40A6959795879577956795BA95C9F7009761
S1131A506105710508959B01AC010A2E0694579502
S1131A60479537952795BA95C9F7620F731F841F59
S1131A70951FA01D08952F923F924F925F926F92EF
S1131A807F928F929F92AF92BF92CF92DF92EF920A
S1131A90FF920F931F93CF93DF93CDB7DEB7CA1B8B
S1131AA0DB0B0FB6F894DEBF0FBECDBF09942A88B6
S1131AB0398848885F846E847D848C849B84AA845E
S1131AC0B984C884DF80EE80FD800C811B81AA81EB
S1131AD0B981CE0FD11D0FB6F894DEBF0FBECDBFB6
S1131AE0ED01089510E0CCE5D0E004C0FE010E94B1
S1111AF034092196CE35D107C9F7F894FFCFFB
S1131AFE0000580120004144435B256868755D3A37
S1091B0E2025640A00001A
S9030000FC
